{
  "contractName": "Escrow",
  "abi": [
    {
      "inputs": [],
      "stateMutability": "nonpayable",
      "type": "constructor"
    },
    {
      "anonymous": false,
      "inputs": [
        {
          "indexed": true,
          "internalType": "address",
          "name": "tokenOwner",
          "type": "address"
        },
        {
          "indexed": true,
          "internalType": "address",
          "name": "spender",
          "type": "address"
        },
        {
          "indexed": false,
          "internalType": "uint256",
          "name": "tokens",
          "type": "uint256"
        }
      ],
      "name": "Approval",
      "type": "event"
    },
    {
      "anonymous": false,
      "inputs": [
        {
          "indexed": true,
          "internalType": "address",
          "name": "from",
          "type": "address"
        },
        {
          "indexed": true,
          "internalType": "address",
          "name": "to",
          "type": "address"
        },
        {
          "indexed": false,
          "internalType": "uint256",
          "name": "tokens",
          "type": "uint256"
        }
      ],
      "name": "Transfer",
      "type": "event"
    },
    {
      "stateMutability": "payable",
      "type": "fallback",
      "payable": true
    },
    {
      "inputs": [],
      "name": "ONE",
      "outputs": [
        {
          "internalType": "uint256",
          "name": "",
          "type": "uint256"
        }
      ],
      "stateMutability": "view",
      "type": "function",
      "constant": true
    },
    {
      "inputs": [
        {
          "internalType": "enum Escrow.Levels",
          "name": "level",
          "type": "uint8"
        }
      ],
      "name": "firstPaymentPercentage",
      "outputs": [
        {
          "internalType": "uint256",
          "name": "",
          "type": "uint256"
        }
      ],
      "stateMutability": "view",
      "type": "function",
      "constant": true
    },
    {
      "inputs": [
        {
          "internalType": "bytes32",
          "name": "bountyHash",
          "type": "bytes32"
        }
      ],
      "name": "bounties",
      "outputs": [
        {
          "components": [
            {
              "internalType": "enum Escrow.State",
              "name": "state",
              "type": "uint8"
            },
            {
              "internalType": "address payable",
              "name": "contributor",
              "type": "address"
            },
            {
              "internalType": "address payable",
              "name": "payer",
              "type": "address"
            },
            {
              "internalType": "contract IERC20",
              "name": "token",
              "type": "address"
            },
            {
              "internalType": "uint256",
              "name": "value",
              "type": "uint256"
            },
            {
              "internalType": "uint256",
              "name": "expirationDays",
              "type": "uint256"
            },
            {
              "internalType": "uint256",
              "name": "depositTimestamp",
              "type": "uint256"
            },
            {
              "internalType": "enum Escrow.Levels",
              "name": "contributorLevel",
              "type": "uint8"
            }
          ],
          "internalType": "struct Escrow.Bounty",
          "name": "bouty",
          "type": "tuple"
        }
      ],
      "stateMutability": "view",
      "type": "function",
      "constant": true
    },
    {
      "inputs": [],
      "name": "balance",
      "outputs": [
        {
          "internalType": "uint256",
          "name": "",
          "type": "uint256"
        }
      ],
      "stateMutability": "view",
      "type": "function",
      "constant": true
    },
    {
      "inputs": [],
      "name": "owner",
      "outputs": [
        {
          "internalType": "address",
          "name": "",
          "type": "address"
        }
      ],
      "stateMutability": "view",
      "type": "function",
      "constant": true
    },
    {
      "inputs": [
        {
          "internalType": "address",
          "name": "newOwner",
          "type": "address"
        }
      ],
      "name": "changeOwner",
      "outputs": [],
      "stateMutability": "nonpayable",
      "type": "function"
    },
    {
      "inputs": [
        {
          "internalType": "enum Escrow.Levels",
          "name": "level",
          "type": "uint8"
        },
        {
          "internalType": "uint256",
          "name": "newPercentage",
          "type": "uint256"
        }
      ],
      "name": "changeFirstPaymentPercentage",
      "outputs": [],
      "stateMutability": "nonpayable",
      "type": "function"
    },
    {
      "inputs": [
        {
          "internalType": "string",
          "name": "title",
          "type": "string"
        },
        {
          "internalType": "string",
          "name": "description",
          "type": "string"
        },
        {
          "internalType": "string",
          "name": "doneCriteria",
          "type": "string"
        },
        {
          "internalType": "string",
          "name": "reward",
          "type": "string"
        }
      ],
      "name": "hashBountyInfo",
      "outputs": [
        {
          "internalType": "bytes32",
          "name": "",
          "type": "bytes32"
        }
      ],
      "stateMutability": "pure",
      "type": "function",
      "constant": true
    },
    {
      "inputs": [
        {
          "internalType": "bytes32",
          "name": "bountyHash",
          "type": "bytes32"
        },
        {
          "internalType": "contract IERC20",
          "name": "token_",
          "type": "address"
        },
        {
          "internalType": "address payable",
          "name": "contributor_",
          "type": "address"
        },
        {
          "internalType": "address payable",
          "name": "payer_",
          "type": "address"
        },
        {
          "internalType": "uint256",
          "name": "value_",
          "type": "uint256"
        },
        {
          "internalType": "uint256",
          "name": "expirationDays_",
          "type": "uint256"
        },
        {
          "internalType": "enum Escrow.Levels",
          "name": "contributorLevel_",
          "type": "uint8"
        }
      ],
      "name": "defineNewBounty",
      "outputs": [],
      "stateMutability": "nonpayable",
      "type": "function"
    },
    {
      "inputs": [
        {
          "internalType": "enum Escrow.Levels",
          "name": "contributorLevel",
          "type": "uint8"
        }
      ],
      "name": "getContributorPercentage",
      "outputs": [
        {
          "internalType": "uint256",
          "name": "",
          "type": "uint256"
        }
      ],
      "stateMutability": "view",
      "type": "function",
      "constant": true
    },
    {
      "inputs": [
        {
          "internalType": "uint256",
          "name": "amount",
          "type": "uint256"
        },
        {
          "internalType": "bytes32",
          "name": "bountyHash",
          "type": "bytes32"
        }
      ],
      "name": "deposit",
      "outputs": [],
      "stateMutability": "payable",
      "type": "function",
      "payable": true
    },
    {
      "inputs": [
        {
          "internalType": "bytes32",
          "name": "bountyHash",
          "type": "bytes32"
        }
      ],
      "name": "emergencyWithdrawal",
      "outputs": [],
      "stateMutability": "nonpayable",
      "type": "function"
    },
    {
      "inputs": [
        {
          "internalType": "bytes32",
          "name": "bountyHash",
          "type": "bytes32"
        }
      ],
      "name": "confirmDelivery",
      "outputs": [],
      "stateMutability": "nonpayable",
      "type": "function"
    }
  ],
  "bytecode": "0x608060405234801561001057600080fd5b5033600260006101000a81548173ffffffffffffffffffffffffffffffffffffffff021916908373ffffffffffffffffffffffffffffffffffffffff1602179055506124ef806100616000396000f3fe6080604052600436106100c65760003560e01c8063a6f9dae11161007f578063bf5522da11610059578063bf5522da14610266578063c2ee3a08146102a3578063c66958fd146102ce578063c9630cb01461030b576100c7565b8063a6f9dae1146101e9578063b69ef8a814610212578063bcabc2b71461023d576100c7565b80635fe8930f146100c95780636fbec0cd1461010657806374950ffd1461012f5780638da5cb5b146101585780639075d54b14610183578063a2f12fb2146101c0576100c7565b5b005b3480156100d557600080fd5b506100f060048036038101906100eb91906118b8565b610327565b6040516100fd9190611f09565b60405180910390f35b34801561011257600080fd5b5061012d600480360381019061012891906117f1565b6103b3565b005b34801561013b57600080fd5b50610156600480360381019061015191906117f1565b6105e7565b005b34801561016457600080fd5b5061016d6108db565b60405161017a9190611c96565b60405180910390f35b34801561018f57600080fd5b506101aa60048036038101906101a5919061191d565b610905565b6040516101b79190611d71565b60405180910390f35b3480156101cc57600080fd5b506101e760048036038101906101e2919061181a565b61093e565b005b3480156101f557600080fd5b50610210600480360381019061020b919061179f565b610bc4565b005b34801561021e57600080fd5b50610227610c98565b6040516102349190611f09565b60405180910390f35b34801561024957600080fd5b50610264600480360381019061025f91906118e1565b610ca0565b005b34801561027257600080fd5b5061028d600480360381019061028891906117f1565b610dbb565b60405161029a9190611eed565b60405180910390f35b3480156102af57600080fd5b506102b8611017565b6040516102c59190611f09565b60405180910390f35b3480156102da57600080fd5b506102f560048036038101906102f091906118b8565b611023565b6040516103029190611f09565b60405180910390f35b610325600480360381019061032091906119e0565b611035565b005b6000806000836003811115610365577f4e487b7100000000000000000000000000000000000000000000000000000000600052602160045260246000fd5b600381111561039d577f4e487b7100000000000000000000000000000000000000000000000000000000600052602160045260246000fd5b8152602001908152602001600020549050919050565b806001600082815260200190815260200160002060010160009054906101000a900473ffffffffffffffffffffffffffffffffffffffff1673ffffffffffffffffffffffffffffffffffffffff163373ffffffffffffffffffffffffffffffffffffffff1614610458576040517f08c379a000000000000000000000000000000000000000000000000000000000815260040161044f90611e6d565b60405180910390fd5b62015180600160008481526020019081526020016000206004015461047d9190611fc7565b60016000848152602001908152602001600020600501544261049f9190612021565b116104df576040517f08c379a00000000000000000000000000000000000000000000000000000000081526004016104d690611e4d565b60405180910390fd5b600060016000848152602001908152602001600020600301549050600060016000858152602001908152602001600020600301819055506001600084815260200190815260200160002060020160009054906101000a900473ffffffffffffffffffffffffffffffffffffffff1673ffffffffffffffffffffffffffffffffffffffff1663a9059cbb33836040518363ffffffff1660e01b8152600401610587929190611d48565b602060405180830381600087803b1580156105a157600080fd5b505af11580156105b5573d6000803e3d6000fd5b505050506040513d601f19601f820116820180604052508101906105d991906117c8565b6105e257600080fd5b505050565b806001600082815260200190815260200160002060010160009054906101000a900473ffffffffffffffffffffffffffffffffffffffff1673ffffffffffffffffffffffffffffffffffffffff163373ffffffffffffffffffffffffffffffffffffffff161461068c576040517f08c379a000000000000000000000000000000000000000000000000000000000815260040161068390611e6d565b60405180910390fd5b600160028111156106c6577f4e487b7100000000000000000000000000000000000000000000000000000000600052602160045260246000fd5b6001600084815260200190815260200160002060000160009054906101000a900460ff166002811115610722577f4e487b7100000000000000000000000000000000000000000000000000000000600052602160045260246000fd5b14610762576040517f08c379a000000000000000000000000000000000000000000000000000000000815260040161075990611ded565b60405180910390fd5b60026001600084815260200190815260200160002060000160006101000a81548160ff021916908360028111156107c2577f4e487b7100000000000000000000000000000000000000000000000000000000600052602160045260246000fd5b02179055506001600083815260200190815260200160002060020160009054906101000a900473ffffffffffffffffffffffffffffffffffffffff1673ffffffffffffffffffffffffffffffffffffffff1663a9059cbb6001600085815260200190815260200160002060000160019054906101000a900473ffffffffffffffffffffffffffffffffffffffff1660016000868152602001908152602001600020600301546040518363ffffffff1660e01b8152600401610884929190611cb1565b602060405180830381600087803b15801561089e57600080fd5b505af11580156108b2573d6000803e3d6000fd5b505050506040513d601f19601f820116820180604052508101906108d691906117c8565b505050565b6000600260009054906101000a900473ffffffffffffffffffffffffffffffffffffffff16905090565b60008484848460405160200161091e9493929190611d8c565b604051602081830303815290604052805190602001209050949350505050565b84600073ffffffffffffffffffffffffffffffffffffffff168173ffffffffffffffffffffffffffffffffffffffff1614156109af576040517f08c379a00000000000000000000000000000000000000000000000000000000081526004016109a690611e0d565b60405180910390fd5b84600073ffffffffffffffffffffffffffffffffffffffff168173ffffffffffffffffffffffffffffffffffffffff161415610a20576040517f08c379a0000000000000000000000000000000000000000000000000000000008152600401610a1790611e0d565b60405180910390fd5b86600160008b815260200190815260200160002060000160016101000a81548173ffffffffffffffffffffffffffffffffffffffff021916908373ffffffffffffffffffffffffffffffffffffffff16021790555087600160008b815260200190815260200160002060020160006101000a81548173ffffffffffffffffffffffffffffffffffffffff021916908373ffffffffffffffffffffffffffffffffffffffff16021790555085600160008b815260200190815260200160002060010160006101000a81548173ffffffffffffffffffffffffffffffffffffffff021916908373ffffffffffffffffffffffffffffffffffffffff16021790555084600160008b81526020019081526020016000206003018190555083600160008b81526020019081526020016000206004018190555082600160008b815260200190815260200160002060060160006101000a81548160ff02191690836003811115610bb4577f4e487b7100000000000000000000000000000000000000000000000000000000600052602160045260246000fd5b0217905550505050505050505050565b600260009054906101000a900473ffffffffffffffffffffffffffffffffffffffff1673ffffffffffffffffffffffffffffffffffffffff163373ffffffffffffffffffffffffffffffffffffffff1614610c54576040517f08c379a0000000000000000000000000000000000000000000000000000000008152600401610c4b90611ecd565b60405180910390fd5b80600260006101000a81548173ffffffffffffffffffffffffffffffffffffffff021916908373ffffffffffffffffffffffffffffffffffffffff16021790555050565b600047905090565b600260009054906101000a900473ffffffffffffffffffffffffffffffffffffffff1673ffffffffffffffffffffffffffffffffffffffff163373ffffffffffffffffffffffffffffffffffffffff1614610d30576040517f08c379a0000000000000000000000000000000000000000000000000000000008152600401610d2790611ecd565b60405180910390fd5b80600080846003811115610d6d577f4e487b7100000000000000000000000000000000000000000000000000000000600052602160045260246000fd5b6003811115610da5577f4e487b7100000000000000000000000000000000000000000000000000000000600052602160045260246000fd5b8152602001908152602001600020819055505050565b610dc36115ad565b60016000838152602001908152602001600020604051806101000160405290816000820160009054906101000a900460ff166002811115610e2d577f4e487b7100000000000000000000000000000000000000000000000000000000600052602160045260246000fd5b6002811115610e65577f4e487b7100000000000000000000000000000000000000000000000000000000600052602160045260246000fd5b81526020016000820160019054906101000a900473ffffffffffffffffffffffffffffffffffffffff1673ffffffffffffffffffffffffffffffffffffffff1673ffffffffffffffffffffffffffffffffffffffff1681526020016001820160009054906101000a900473ffffffffffffffffffffffffffffffffffffffff1673ffffffffffffffffffffffffffffffffffffffff1673ffffffffffffffffffffffffffffffffffffffff1681526020016002820160009054906101000a900473ffffffffffffffffffffffffffffffffffffffff1673ffffffffffffffffffffffffffffffffffffffff1673ffffffffffffffffffffffffffffffffffffffff1681526020016003820154815260200160048201548152602001600582015481526020016006820160009054906101000a900460ff166003811115610fd4577f4e487b7100000000000000000000000000000000000000000000000000000000600052602160045260246000fd5b600381111561100c577f4e487b7100000000000000000000000000000000000000000000000000000000600052602160045260246000fd5b815250509050919050565b670de0b6b3a764000081565b600061102e82610327565b9050919050565b806001600082815260200190815260200160002060010160009054906101000a900473ffffffffffffffffffffffffffffffffffffffff1673ffffffffffffffffffffffffffffffffffffffff163373ffffffffffffffffffffffffffffffffffffffff16146110da576040517f08c379a00000000000000000000000000000000000000000000000000000000081526004016110d190611e6d565b60405180910390fd5b60016000838152602001908152602001600020600301548314611132576040517f08c379a000000000000000000000000000000000000000000000000000000000815260040161112990611e8d565b60405180910390fd5b6000600281111561116c577f4e487b7100000000000000000000000000000000000000000000000000000000600052602160045260246000fd5b6001600084815260200190815260200160002060000160009054906101000a900460ff1660028111156111c8577f4e487b7100000000000000000000000000000000000000000000000000000000600052602160045260246000fd5b14611208576040517f08c379a00000000000000000000000000000000000000000000000000000000081526004016111ff90611e2d565b60405180910390fd5b426001600084815260200190815260200160002060050181905550600180600084815260200190815260200160002060000160006101000a81548160ff02191690836002811115611282577f4e487b7100000000000000000000000000000000000000000000000000000000600052602160045260246000fd5b021790555060006112b56001600085815260200190815260200160002060060160009054906101000a900460ff16611023565b90506000670de0b6b3a76400008260016000878152602001908152602001600020600301546112e49190611fc7565b6112ee9190611f96565b9050670de0b6b3a764000082670de0b6b3a764000061130d9190612021565b600160008781526020019081526020016000206003015461132e9190611fc7565b6113389190611f96565b60016000868152602001908152602001600020600301819055506001600085815260200190815260200160002060020160009054906101000a900473ffffffffffffffffffffffffffffffffffffffff1673ffffffffffffffffffffffffffffffffffffffff166323b872dd333060016000898152602001908152602001600020600301546040518463ffffffff1660e01b81526004016113db93929190611d11565b602060405180830381600087803b1580156113f557600080fd5b505af1158015611409573d6000803e3d6000fd5b505050506040513d601f19601f8201168201806040525081019061142d91906117c8565b61146c576040517f08c379a000000000000000000000000000000000000000000000000000000000815260040161146390611ead565b60405180910390fd5b6001600085815260200190815260200160002060020160009054906101000a900473ffffffffffffffffffffffffffffffffffffffff1673ffffffffffffffffffffffffffffffffffffffff166323b872dd336001600088815260200190815260200160002060000160019054906101000a900473ffffffffffffffffffffffffffffffffffffffff16846040518463ffffffff1660e01b815260040161151593929190611cda565b602060405180830381600087803b15801561152f57600080fd5b505af1158015611543573d6000803e3d6000fd5b505050506040513d601f19601f8201168201806040525081019061156791906117c8565b6115a6576040517f08c379a000000000000000000000000000000000000000000000000000000000815260040161159d90611ead565b60405180910390fd5b5050505050565b604051806101000160405280600060028111156115f3577f4e487b7100000000000000000000000000000000000000000000000000000000600052602160045260246000fd5b8152602001600073ffffffffffffffffffffffffffffffffffffffff168152602001600073ffffffffffffffffffffffffffffffffffffffff168152602001600073ffffffffffffffffffffffffffffffffffffffff1681526020016000815260200160008152602001600081526020016000600381111561169e577f4e487b7100000000000000000000000000000000000000000000000000000000600052602160045260246000fd5b81525090565b60006116b76116b284611f49565b611f24565b9050828152602081018484840111156116cf57600080fd5b6116da84828561216f565b509392505050565b6000813590506116f18161241f565b92915050565b60008135905061170681612436565b92915050565b60008151905061171b8161244d565b92915050565b60008135905061173081612464565b92915050565b6000813590506117458161247b565b92915050565b60008135905061175a81612492565b92915050565b600082601f83011261177157600080fd5b81356117818482602086016116a4565b91505092915050565b600081359050611799816124a2565b92915050565b6000602082840312156117b157600080fd5b60006117bf848285016116e2565b91505092915050565b6000602082840312156117da57600080fd5b60006117e88482850161170c565b91505092915050565b60006020828403121561180357600080fd5b600061181184828501611721565b91505092915050565b600080600080600080600060e0888a03121561183557600080fd5b60006118438a828b01611721565b97505060206118548a828b01611736565b96505060406118658a828b016116f7565b95505060606118768a828b016116f7565b94505060806118878a828b0161178a565b93505060a06118988a828b0161178a565b92505060c06118a98a828b0161174b565b91505092959891949750929550565b6000602082840312156118ca57600080fd5b60006118d88482850161174b565b91505092915050565b600080604083850312156118f457600080fd5b60006119028582860161174b565b92505060206119138582860161178a565b9150509250929050565b6000806000806080858703121561193357600080fd5b600085013567ffffffffffffffff81111561194d57600080fd5b61195987828801611760565b945050602085013567ffffffffffffffff81111561197657600080fd5b61198287828801611760565b935050604085013567ffffffffffffffff81111561199f57600080fd5b6119ab87828801611760565b925050606085013567ffffffffffffffff8111156119c857600080fd5b6119d487828801611760565b91505092959194509250565b600080604083850312156119f357600080fd5b6000611a018582860161178a565b9250506020611a1285828601611721565b9150509250929050565b611a25816120f1565b82525050565b611a3481612067565b82525050565b611a4381612055565b82525050565b611a5281612085565b82525050565b611a6181612103565b82525050565b611a7081612127565b82525050565b611a7f81612139565b82525050565b6000611a9082611f7a565b611a9a8185611f85565b9350611aaa81856020860161217e565b611ab38161229e565b840191505092915050565b6000611acb601483611f85565b9150611ad6826122af565b602082019050919050565b6000611aee601883611f85565b9150611af9826122d8565b602082019050919050565b6000611b11601883611f85565b9150611b1c82612301565b602082019050919050565b6000611b34601583611f85565b9150611b3f8261232a565b602082019050919050565b6000611b57601183611f85565b9150611b6282612353565b602082019050919050565b6000611b7a601283611f85565b9150611b858261237c565b602082019050919050565b6000611b9d601283611f85565b9150611ba8826123a5565b602082019050919050565b6000611bc0600a83611f85565b9150611bcb826123ce565b602082019050919050565b61010082016000820151611bed6000850182611a76565b506020820151611c006020850182611a2b565b506040820151611c136040850182611a2b565b506060820151611c266060850182611a58565b506080820151611c396080850182611c78565b5060a0820151611c4c60a0850182611c78565b5060c0820151611c5f60c0850182611c78565b5060e0820151611c7260e0850182611a67565b50505050565b611c81816120e7565b82525050565b611c90816120e7565b82525050565b6000602082019050611cab6000830184611a3a565b92915050565b6000604082019050611cc66000830185611a1c565b611cd36020830184611c87565b9392505050565b6000606082019050611cef6000830186611a3a565b611cfc6020830185611a1c565b611d096040830184611c87565b949350505050565b6000606082019050611d266000830186611a3a565b611d336020830185611a3a565b611d406040830184611c87565b949350505050565b6000604082019050611d5d6000830185611a3a565b611d6a6020830184611c87565b9392505050565b6000602082019050611d866000830184611a49565b92915050565b60006080820190508181036000830152611da68187611a85565b90508181036020830152611dba8186611a85565b90508181036040830152611dce8185611a85565b90508181036060830152611de28184611a85565b905095945050505050565b60006020820190508181036000830152611e0681611abe565b9050919050565b60006020820190508181036000830152611e2681611ae1565b9050919050565b60006020820190508181036000830152611e4681611b04565b9050919050565b60006020820190508181036000830152611e6681611b27565b9050919050565b60006020820190508181036000830152611e8681611b4a565b9050919050565b60006020820190508181036000830152611ea681611b6d565b9050919050565b60006020820190508181036000830152611ec681611b90565b9050919050565b60006020820190508181036000830152611ee681611bb3565b9050919050565b600061010082019050611f036000830184611bd6565b92915050565b6000602082019050611f1e6000830184611c87565b92915050565b6000611f2e611f3f565b9050611f3a82826121b1565b919050565b6000604051905090565b600067ffffffffffffffff821115611f6457611f6361226f565b5b611f6d8261229e565b9050602081019050919050565b600081519050919050565b600082825260208201905092915050565b6000611fa1826120e7565b9150611fac836120e7565b925082611fbc57611fbb612211565b5b828204905092915050565b6000611fd2826120e7565b9150611fdd836120e7565b9250817fffffffffffffffffffffffffffffffffffffffffffffffffffffffffffffffff0483118215151615612016576120156121e2565b5b828202905092915050565b600061202c826120e7565b9150612037836120e7565b92508282101561204a576120496121e2565b5b828203905092915050565b6000612060826120c7565b9050919050565b6000612072826120c7565b9050919050565b60008115159050919050565b6000819050919050565b600061209a82612055565b9050919050565b60008190506120af826123f7565b919050565b60008190506120c28261240b565b919050565b600073ffffffffffffffffffffffffffffffffffffffff82169050919050565b6000819050919050565b60006120fc8261214b565b9050919050565b600061210e82612115565b9050919050565b6000612120826120c7565b9050919050565b6000612132826120a1565b9050919050565b6000612144826120b4565b9050919050565b60006121568261215d565b9050919050565b6000612168826120c7565b9050919050565b82818337600083830152505050565b60005b8381101561219c578082015181840152602081019050612181565b838111156121ab576000848401525b50505050565b6121ba8261229e565b810181811067ffffffffffffffff821117156121d9576121d861226f565b5b80604052505050565b7f4e487b7100000000000000000000000000000000000000000000000000000000600052601160045260246000fd5b7f4e487b7100000000000000000000000000000000000000000000000000000000600052601260045260246000fd5b7f4e487b7100000000000000000000000000000000000000000000000000000000600052602160045260246000fd5b7f4e487b7100000000000000000000000000000000000000000000000000000000600052604160045260246000fd5b6000601f19601f8301169050919050565b7f424f554e54595f4e4f545f4445504f5349544544000000000000000000000000600082015250565b7f5a45524f5f414444524553535f4e4f545f414c4c4f5745440000000000000000600082015250565b7f424f554e54595f414c52454144595f50415945445f464f520000000000000000600082015250565b7f46554e44535f5354494c4c5f494e5f455343524f570000000000000000000000600082015250565b7f4f4e4c595f424f554e54595f5041594552000000000000000000000000000000600082015250565b7f57524f4e475f424f554e54595f56414c55450000000000000000000000000000600082015250565b7f544f4b454e5f4e4f545f415050524f5645440000000000000000000000000000600082015250565b7f4f4e4c595f4f574e455200000000000000000000000000000000000000000000600082015250565b6004811061240857612407612240565b5b50565b6003811061241c5761241b612240565b5b50565b61242881612055565b811461243357600080fd5b50565b61243f81612067565b811461244a57600080fd5b50565b61245681612079565b811461246157600080fd5b50565b61246d81612085565b811461247857600080fd5b50565b6124848161208f565b811461248f57600080fd5b50565b6004811061249f57600080fd5b50565b6124ab816120e7565b81146124b657600080fd5b5056fea2646970667358221220178b278585f7e98413d5ebcba25af2355c49bdff346fe9ff4cceac9fc63c1afa64736f6c63430008030033",
  "immutableReferences": {},
  "source": "// SPDX-License-Identifier: MIT\npragma solidity ^0.8.0;\n\nimport \"@openzeppelin/contracts/token/ERC20/IERC20.sol\";\n\ncontract Escrow {\n  enum State {\n    AWAITING_PAYMENT,\n    AWAITING_DELIVERY,\n    COMPLETE\n  }\n\n  struct Bounty {\n    State state;\n    address payable contributor;\n    address payable payer;\n    IERC20 token;\n    uint256 value;\n    uint256 expirationDays;\n    uint256 depositTimestamp;\n    Levels contributorLevel;\n  }\n\n  enum Levels {\n    GUEST_PASS,\n    LEVEL_0,\n    LEVEL_1,\n    LEVEL_2\n  }\n\n  uint256 public constant ONE = 10**18;\n\n  mapping(Levels => uint256) private _firstPaymentPercentage;\n  mapping(bytes32 => Bounty) private _bounties; // bouty hash => State\n\n  address private _owner;\n\n  modifier onlyPayer(bytes32 bountyHash) {\n    require(msg.sender == _bounties[bountyHash].payer, \"ONLY_BOUNTY_PAYER\");\n    _;\n  }\n\n  modifier onlyOwner() {\n    require(msg.sender == _owner, \"ONLY_OWNER\");\n    _;\n  }\n\n  constructor() {\n    _owner = msg.sender;\n  }\n\n  function firstPaymentPercentage(Levels level) public view returns (uint256) {\n    return _firstPaymentPercentage[level];\n  }\n\n  function bounties(bytes32 bountyHash)\n    public\n    view\n    returns (Bounty memory bouty)\n  {\n    return _bounties[bountyHash];\n  }\n\n  function balance() public view returns (uint256) {\n    return address(this).balance;\n  }\n\n  function owner() public view returns (address) {\n    return _owner;\n  }\n\n  function changeOwner(address newOwner) public onlyOwner {\n    _owner = newOwner;\n  }\n\n  fallback() external payable {}\n\n  function changeFirstPaymentPercentage(Levels level, uint256 newPercentage)\n    public\n    onlyOwner\n  {\n    _firstPaymentPercentage[level] = newPercentage;\n  }\n\n  modifier notZeroAddress(address addr) {\n    require(addr != address(0), \"ZERO_ADDRESS_NOT_ALLOWED\");\n    _;\n  }\n\n  event Approval(\n    address indexed tokenOwner,\n    address indexed spender,\n    uint256 tokens\n  );\n\n  event Transfer(address indexed from, address indexed to, uint256 tokens);\n\n  function hashBountyInfo(\n    string memory title,\n    string memory description,\n    string memory doneCriteria,\n    string memory reward\n  ) public pure returns (bytes32) {\n    return keccak256(abi.encode(title, description, doneCriteria, reward));\n  }\n\n  function defineNewBounty(\n    bytes32 bountyHash,\n    IERC20 token_,\n    address payable contributor_,\n    address payable payer_,\n    uint256 value_,\n    uint256 expirationDays_,\n    Levels contributorLevel_\n  ) public notZeroAddress(contributor_) notZeroAddress(payer_) {\n    _bounties[bountyHash].contributor = contributor_;\n    _bounties[bountyHash].token = token_;\n    _bounties[bountyHash].payer = payer_;\n    _bounties[bountyHash].value = value_;\n    _bounties[bountyHash].expirationDays = expirationDays_;\n    _bounties[bountyHash].contributorLevel = contributorLevel_;\n  }\n\n  function getContributorPercentage(Levels contributorLevel)\n    public\n    view\n    returns (uint256)\n  {\n    return firstPaymentPercentage(contributorLevel);\n  }\n\n  function deposit(uint256 amount, bytes32 bountyHash)\n    external\n    payable\n    onlyPayer(bountyHash)\n  {\n    require(amount == _bounties[bountyHash].value, \"WRONG_BOUNTY_VALUE\");\n\n    require(\n      _bounties[bountyHash].state == State.AWAITING_PAYMENT,\n      \"BOUNTY_ALREADY_PAYED_FOR\"\n    );\n\n    _bounties[bountyHash].depositTimestamp = block.timestamp;\n\n    _bounties[bountyHash].state = State.AWAITING_DELIVERY;\n\n    uint256 contributorPercentage = getContributorPercentage(\n      _bounties[bountyHash].contributorLevel\n    );\n\n    uint256 contributorReceivalbe = (_bounties[bountyHash].value *\n      contributorPercentage) / ONE;\n\n    // value is subtracted here in case contributor initial percentage changes afterwards\n    _bounties[bountyHash].value =\n      (_bounties[bountyHash].value * (ONE - contributorPercentage)) /\n      ONE;\n\n    require(\n      _bounties[bountyHash].token.transferFrom(\n        msg.sender,\n        address(this),\n        _bounties[bountyHash].value\n      ),\n      \"TOKEN_NOT_APPROVED\"\n    );\n    require(\n      _bounties[bountyHash].token.transferFrom(\n        msg.sender,\n        _bounties[bountyHash].contributor,\n        contributorReceivalbe\n      ),\n      \"TOKEN_NOT_APPROVED\"\n    );\n  }\n\n  uint256 constant daysInSeconds = 24 * 60 * 60;\n\n  function emergencyWithdrawal(bytes32 bountyHash)\n    public\n    onlyPayer(bountyHash)\n  {\n    require(\n      block.timestamp - _bounties[bountyHash].depositTimestamp >\n        _bounties[bountyHash].expirationDays * daysInSeconds,\n      \"FUNDS_STILL_IN_ESCROW\"\n    );\n\n    uint256 amount = _bounties[bountyHash].value; // SPDX-License-Identifier: MIT\n    _bounties[bountyHash].value = 0;\n    require(_bounties[bountyHash].token.transfer(msg.sender, amount));\n  }\n\n  function confirmDelivery(bytes32 bountyHash) external onlyPayer(bountyHash) {\n    require(\n      _bounties[bountyHash].state == State.AWAITING_DELIVERY,\n      \"BOUNTY_NOT_DEPOSITED\"\n    );\n    _bounties[bountyHash].state = State.COMPLETE;\n\n    _bounties[bountyHash].token.transfer(\n      _bounties[bountyHash].contributor,\n      _bounties[bountyHash].value\n    );\n  }\n}\n",
  "sourcePath": "/Users/joaohenriquecosta/gitf/bounty-board/packages/truffle/contracts/Escrow.sol",
  "compiler": {
    "name": "solc",
    "version": "0.8.3+commit.8d00100c.Emscripten.clang"
  },
  "schemaVersion": "3.3.4",
  "updatedAt": "2021-08-06T03:22:41.289Z",
  "networkType": "ethereum",
  "devdoc": {
    "kind": "dev",
    "methods": {},
    "version": 1
  },
  "userdoc": {
    "kind": "user",
    "methods": {},
    "version": 1
  }
}