{
  "contractName": "Escrow",
  "abi": [
    {
      "inputs": [
        {
          "internalType": "address",
          "name": "treasury_",
          "type": "address"
        }
      ],
      "stateMutability": "nonpayable",
      "type": "constructor"
    },
    {
      "anonymous": false,
      "inputs": [
        {
          "indexed": true,
          "internalType": "address",
          "name": "tokenOwner",
          "type": "address"
        },
        {
          "indexed": true,
          "internalType": "address",
          "name": "spender",
          "type": "address"
        },
        {
          "indexed": false,
          "internalType": "uint256",
          "name": "tokens",
          "type": "uint256"
        }
      ],
      "name": "Approval",
      "type": "event"
    },
    {
      "anonymous": false,
      "inputs": [
        {
          "indexed": true,
          "internalType": "address",
          "name": "from",
          "type": "address"
        },
        {
          "indexed": true,
          "internalType": "address",
          "name": "to",
          "type": "address"
        },
        {
          "indexed": false,
          "internalType": "uint256",
          "name": "tokens",
          "type": "uint256"
        }
      ],
      "name": "Transfer",
      "type": "event"
    },
    {
      "inputs": [],
      "name": "ONE",
      "outputs": [
        {
          "internalType": "uint256",
          "name": "",
          "type": "uint256"
        }
      ],
      "stateMutability": "view",
      "type": "function"
    },
    {
      "inputs": [
        {
          "internalType": "enum Escrow.Levels",
          "name": "level",
          "type": "uint8"
        }
      ],
      "name": "firstPaymentPercentage",
      "outputs": [
        {
          "internalType": "uint256",
          "name": "",
          "type": "uint256"
        }
      ],
      "stateMutability": "view",
      "type": "function"
    },
    {
      "inputs": [
        {
          "internalType": "bytes32",
          "name": "bountyHash",
          "type": "bytes32"
        }
      ],
      "name": "bounties",
      "outputs": [
        {
          "components": [
            {
              "internalType": "enum Escrow.State",
              "name": "state",
              "type": "uint8"
            },
            {
              "internalType": "address payable",
              "name": "contributor",
              "type": "address"
            },
            {
              "internalType": "address payable",
              "name": "payer",
              "type": "address"
            },
            {
              "internalType": "uint256",
              "name": "value",
              "type": "uint256"
            },
            {
              "internalType": "uint256",
              "name": "expirationDays",
              "type": "uint256"
            },
            {
              "internalType": "uint256",
              "name": "depositTimestamp",
              "type": "uint256"
            },
            {
              "internalType": "enum Escrow.Levels",
              "name": "contributorLevel",
              "type": "uint8"
            }
          ],
          "internalType": "struct Escrow.Bounty",
          "name": "bouty",
          "type": "tuple"
        }
      ],
      "stateMutability": "view",
      "type": "function"
    },
    {
      "inputs": [],
      "name": "balance",
      "outputs": [
        {
          "internalType": "uint256",
          "name": "",
          "type": "uint256"
        }
      ],
      "stateMutability": "view",
      "type": "function"
    },
    {
      "inputs": [],
      "name": "owner",
      "outputs": [
        {
          "internalType": "address",
          "name": "",
          "type": "address"
        }
      ],
      "stateMutability": "view",
      "type": "function"
    },
    {
      "inputs": [],
      "name": "treasury",
      "outputs": [
        {
          "internalType": "address",
          "name": "",
          "type": "address"
        }
      ],
      "stateMutability": "view",
      "type": "function"
    },
    {
      "inputs": [
        {
          "internalType": "address",
          "name": "newOwner",
          "type": "address"
        }
      ],
      "name": "changeOwner",
      "outputs": [],
      "stateMutability": "nonpayable",
      "type": "function"
    },
    {
      "inputs": [
        {
          "internalType": "address",
          "name": "newTreasury",
          "type": "address"
        }
      ],
      "name": "changeTreasury",
      "outputs": [],
      "stateMutability": "nonpayable",
      "type": "function"
    },
    {
      "inputs": [
        {
          "internalType": "enum Escrow.Levels",
          "name": "level",
          "type": "uint8"
        },
        {
          "internalType": "uint256",
          "name": "newPercentage",
          "type": "uint256"
        }
      ],
      "name": "changeFirstPaymentPercentage",
      "outputs": [],
      "stateMutability": "nonpayable",
      "type": "function"
    },
    {
      "inputs": [
        {
          "internalType": "string",
          "name": "title",
          "type": "string"
        },
        {
          "internalType": "string",
          "name": "description",
          "type": "string"
        },
        {
          "internalType": "string",
          "name": "doneCriteria",
          "type": "string"
        },
        {
          "internalType": "string",
          "name": "reward",
          "type": "string"
        }
      ],
      "name": "hashBountyInfo",
      "outputs": [
        {
          "internalType": "bytes32",
          "name": "",
          "type": "bytes32"
        }
      ],
      "stateMutability": "pure",
      "type": "function"
    },
    {
      "inputs": [
        {
          "internalType": "bytes32",
          "name": "bountyHash",
          "type": "bytes32"
        },
        {
          "internalType": "address payable",
          "name": "contributor_",
          "type": "address"
        },
        {
          "internalType": "address payable",
          "name": "payer_",
          "type": "address"
        },
        {
          "internalType": "uint256",
          "name": "value_",
          "type": "uint256"
        },
        {
          "internalType": "uint256",
          "name": "expirationDays_",
          "type": "uint256"
        },
        {
          "internalType": "enum Escrow.Levels",
          "name": "contributorLevel_",
          "type": "uint8"
        }
      ],
      "name": "defineNewBounty",
      "outputs": [],
      "stateMutability": "nonpayable",
      "type": "function"
    },
    {
      "inputs": [
        {
          "internalType": "enum Escrow.Levels",
          "name": "contributorLevel",
          "type": "uint8"
        }
      ],
      "name": "getContributorPercentage",
      "outputs": [
        {
          "internalType": "uint256",
          "name": "",
          "type": "uint256"
        }
      ],
      "stateMutability": "view",
      "type": "function"
    },
    {
      "inputs": [
        {
          "internalType": "contract IERC20",
          "name": "token",
          "type": "address"
        },
        {
          "internalType": "uint256",
          "name": "amount",
          "type": "uint256"
        },
        {
          "internalType": "bytes32",
          "name": "bountyHash",
          "type": "bytes32"
        }
      ],
      "name": "deposit",
      "outputs": [],
      "stateMutability": "payable",
      "type": "function"
    },
    {
      "inputs": [
        {
          "internalType": "contract IERC20",
          "name": "token",
          "type": "address"
        },
        {
          "internalType": "bytes32",
          "name": "bountyHash",
          "type": "bytes32"
        }
      ],
      "name": "withdraw",
      "outputs": [],
      "stateMutability": "nonpayable",
      "type": "function"
    },
    {
      "inputs": [
        {
          "internalType": "bytes32",
          "name": "bountyHash",
          "type": "bytes32"
        }
      ],
      "name": "confirmDelivery",
      "outputs": [],
      "stateMutability": "nonpayable",
      "type": "function"
    },
    {
      "inputs": [
        {
          "internalType": "bytes32",
          "name": "bountyHash",
          "type": "bytes32"
        }
      ],
      "name": "emergencyWithdrawal",
      "outputs": [],
      "stateMutability": "nonpayable",
      "type": "function"
    }
  ],
  "bytecode": "0x60806040523480156200001157600080fd5b506040516200250c3803806200250c8339818101604052810190620000379190620000d7565b80600360006101000a81548173ffffffffffffffffffffffffffffffffffffffff021916908373ffffffffffffffffffffffffffffffffffffffff16021790555033600260006101000a81548173ffffffffffffffffffffffffffffffffffffffff021916908373ffffffffffffffffffffffffffffffffffffffff1602179055505062000151565b600081519050620000d18162000137565b92915050565b600060208284031215620000ea57600080fd5b6000620000fa84828501620000c0565b91505092915050565b6000620001108262000117565b9050919050565b600073ffffffffffffffffffffffffffffffffffffffff82169050919050565b620001428162000103565b81146200014e57600080fd5b50565b6123ab80620001616000396000f3fe6080604052600436106100f35760003560e01c80639075d54b1161008a578063bcabc2b711610059578063bcabc2b714610305578063bf5522da1461032e578063c2ee3a081461036b578063c66958fd14610396576100f3565b80639075d54b1461024b578063a6f9dae114610288578063b14f2a39146102b1578063b69ef8a8146102da576100f3565b80636cb0dabe116100c65780636cb0dabe146101a55780636fbec0cd146101ce57806374950ffd146101f75780638da5cb5b14610220576100f3565b806326b3293f146100f857806340e5e9aa146101145780635fe8930f1461013d57806361d027b31461017a575b600080fd5b610112600480360381019061010d919061184e565b6103d3565b005b34801561012057600080fd5b5061013b60048036038101906101369190611812565b61080d565b005b34801561014957600080fd5b50610164600480360381019061015f919061189d565b610966565b6040516101719190611e1f565b60405180910390f35b34801561018657600080fd5b5061018f6109f2565b60405161019c9190611c0d565b60405180910390f35b3480156101b157600080fd5b506101cc60048036038101906101c79190611789565b610a1c565b005b3480156101da57600080fd5b506101f560048036038101906101f09190611760565b610c4c565b005b34801561020357600080fd5b5061021e60048036038101906102199190611760565b610d72565b005b34801561022c57600080fd5b50610235610fe9565b6040516102429190611c0d565b60405180910390f35b34801561025757600080fd5b50610272600480360381019061026d9190611902565b611013565b60405161027f9190611c88565b60405180910390f35b34801561029457600080fd5b506102af60048036038101906102aa919061170e565b61104c565b005b3480156102bd57600080fd5b506102d860048036038101906102d3919061170e565b611120565b005b3480156102e657600080fd5b506102ef6111f4565b6040516102fc9190611e1f565b60405180910390f35b34801561031157600080fd5b5061032c600480360381019061032791906118c6565b6111fc565b005b34801561033a57600080fd5b5061035560048036038101906103509190611760565b611317565b6040516103629190611e04565b60405180910390f35b34801561037757600080fd5b5061038061151c565b60405161038d9190611e1f565b60405180910390f35b3480156103a257600080fd5b506103bd60048036038101906103b8919061189d565b611528565b6040516103ca9190611e1f565b60405180910390f35b806001600082815260200190815260200160002060010160009054906101000a900473ffffffffffffffffffffffffffffffffffffffff1673ffffffffffffffffffffffffffffffffffffffff163373ffffffffffffffffffffffffffffffffffffffff1614610478576040517f08c379a000000000000000000000000000000000000000000000000000000000815260040161046f90611da4565b60405180910390fd5b600160008381526020019081526020016000206002015483146104d0576040517f08c379a00000000000000000000000000000000000000000000000000000000081526004016104c790611dc4565b60405180910390fd5b8373ffffffffffffffffffffffffffffffffffffffff166323b872dd3330866040518463ffffffff1660e01b815260040161050d93929190611c28565b602060405180830381600087803b15801561052757600080fd5b505af115801561053b573d6000803e3d6000fd5b505050506040513d601f19601f8201168201806040525081019061055f9190611737565b61056857600080fd5b600060028111156105a2577f4e487b7100000000000000000000000000000000000000000000000000000000600052602160045260246000fd5b6001600084815260200190815260200160002060000160009054906101000a900460ff1660028111156105fe577f4e487b7100000000000000000000000000000000000000000000000000000000600052602160045260246000fd5b1461063e576040517f08c379a000000000000000000000000000000000000000000000000000000000815260040161063590611d64565b60405180910390fd5b426001600084815260200190815260200160002060040181905550600180600084815260200190815260200160002060000160006101000a81548160ff021916908360028111156106b8577f4e487b7100000000000000000000000000000000000000000000000000000000600052602160045260246000fd5b021790555060006106eb6001600085815260200190815260200160002060050160009054906101000a900460ff16611528565b90506000670de0b6b3a764000082600160008781526020019081526020016000206002015461071a9190611edd565b6107249190611eac565b9050670de0b6b3a764000082670de0b6b3a76400006107439190611f37565b60016000878152602001908152602001600020600201546107649190611edd565b61076e9190611eac565b60016000868152602001908152602001600020600201819055506001600085815260200190815260200160002060000160019054906101000a900473ffffffffffffffffffffffffffffffffffffffff1673ffffffffffffffffffffffffffffffffffffffff166108fc829081150290604051600060405180830381858888f19350505050158015610804573d6000803e3d6000fd5b50505050505050565b6201518060016000838152602001908152602001600020600301546108329190611edd565b6001600083815260200190815260200160002060040154426108549190611f37565b11610894576040517f08c379a000000000000000000000000000000000000000000000000000000000815260040161088b90611d84565b60405180910390fd5b600060016000838152602001908152602001600020600201549050600060016000848152602001908152602001600020600201819055508273ffffffffffffffffffffffffffffffffffffffff1663a9059cbb33836040518363ffffffff1660e01b8152600401610906929190611c5f565b602060405180830381600087803b15801561092057600080fd5b505af1158015610934573d6000803e3d6000fd5b505050506040513d601f19601f820116820180604052508101906109589190611737565b61096157600080fd5b505050565b60008060008360038111156109a4577f4e487b7100000000000000000000000000000000000000000000000000000000600052602160045260246000fd5b60038111156109dc577f4e487b7100000000000000000000000000000000000000000000000000000000600052602160045260246000fd5b8152602001908152602001600020549050919050565b6000600360009054906101000a900473ffffffffffffffffffffffffffffffffffffffff16905090565b84600073ffffffffffffffffffffffffffffffffffffffff168173ffffffffffffffffffffffffffffffffffffffff161415610a8d576040517f08c379a0000000000000000000000000000000000000000000000000000000008152600401610a8490611d44565b60405180910390fd5b84600073ffffffffffffffffffffffffffffffffffffffff168173ffffffffffffffffffffffffffffffffffffffff161415610afe576040517f08c379a0000000000000000000000000000000000000000000000000000000008152600401610af590611d44565b60405180910390fd5b86600160008a815260200190815260200160002060000160016101000a81548173ffffffffffffffffffffffffffffffffffffffff021916908373ffffffffffffffffffffffffffffffffffffffff16021790555085600160008a815260200190815260200160002060010160006101000a81548173ffffffffffffffffffffffffffffffffffffffff021916908373ffffffffffffffffffffffffffffffffffffffff16021790555084600160008a81526020019081526020016000206002018190555083600160008a81526020019081526020016000206003018190555082600160008a815260200190815260200160002060050160006101000a81548160ff02191690836003811115610c3d577f4e487b7100000000000000000000000000000000000000000000000000000000600052602160045260246000fd5b02179055505050505050505050565b600360009054906101000a900473ffffffffffffffffffffffffffffffffffffffff1673ffffffffffffffffffffffffffffffffffffffff163373ffffffffffffffffffffffffffffffffffffffff1614610cdc576040517f08c379a0000000000000000000000000000000000000000000000000000000008152600401610cd390611d24565b60405180910390fd5b6001600082815260200190815260200160002060010160009054906101000a900473ffffffffffffffffffffffffffffffffffffffff1673ffffffffffffffffffffffffffffffffffffffff166108fc60016000848152602001908152602001600020600201549081150290604051600060405180830381858888f19350505050158015610d6e573d6000803e3d6000fd5b5050565b806001600082815260200190815260200160002060010160009054906101000a900473ffffffffffffffffffffffffffffffffffffffff1673ffffffffffffffffffffffffffffffffffffffff163373ffffffffffffffffffffffffffffffffffffffff1614610e17576040517f08c379a0000000000000000000000000000000000000000000000000000000008152600401610e0e90611da4565b60405180910390fd5b60016002811115610e51577f4e487b7100000000000000000000000000000000000000000000000000000000600052602160045260246000fd5b6001600084815260200190815260200160002060000160009054906101000a900460ff166002811115610ead577f4e487b7100000000000000000000000000000000000000000000000000000000600052602160045260246000fd5b14610eed576040517f08c379a0000000000000000000000000000000000000000000000000000000008152600401610ee490611d04565b60405180910390fd5b60026001600084815260200190815260200160002060000160006101000a81548160ff02191690836002811115610f4d577f4e487b7100000000000000000000000000000000000000000000000000000000600052602160045260246000fd5b02179055506001600083815260200190815260200160002060000160019054906101000a900473ffffffffffffffffffffffffffffffffffffffff1673ffffffffffffffffffffffffffffffffffffffff166108fc60016000858152602001908152602001600020600201549081150290604051600060405180830381858888f19350505050158015610fe4573d6000803e3d6000fd5b505050565b6000600260009054906101000a900473ffffffffffffffffffffffffffffffffffffffff16905090565b60008484848460405160200161102c9493929190611ca3565b604051602081830303815290604052805190602001209050949350505050565b600260009054906101000a900473ffffffffffffffffffffffffffffffffffffffff1673ffffffffffffffffffffffffffffffffffffffff163373ffffffffffffffffffffffffffffffffffffffff16146110dc576040517f08c379a00000000000000000000000000000000000000000000000000000000081526004016110d390611de4565b60405180910390fd5b80600260006101000a81548173ffffffffffffffffffffffffffffffffffffffff021916908373ffffffffffffffffffffffffffffffffffffffff16021790555050565b600360009054906101000a900473ffffffffffffffffffffffffffffffffffffffff1673ffffffffffffffffffffffffffffffffffffffff163373ffffffffffffffffffffffffffffffffffffffff16146111b0576040517f08c379a00000000000000000000000000000000000000000000000000000000081526004016111a790611d24565b60405180910390fd5b80600360006101000a81548173ffffffffffffffffffffffffffffffffffffffff021916908373ffffffffffffffffffffffffffffffffffffffff16021790555050565b600047905090565b600260009054906101000a900473ffffffffffffffffffffffffffffffffffffffff1673ffffffffffffffffffffffffffffffffffffffff163373ffffffffffffffffffffffffffffffffffffffff161461128c576040517f08c379a000000000000000000000000000000000000000000000000000000000815260040161128390611de4565b60405180910390fd5b806000808460038111156112c9577f4e487b7100000000000000000000000000000000000000000000000000000000600052602160045260246000fd5b6003811115611301577f4e487b7100000000000000000000000000000000000000000000000000000000600052602160045260246000fd5b8152602001908152602001600020819055505050565b61131f61153a565b600160008381526020019081526020016000206040518060e00160405290816000820160009054906101000a900460ff166002811115611388577f4e487b7100000000000000000000000000000000000000000000000000000000600052602160045260246000fd5b60028111156113c0577f4e487b7100000000000000000000000000000000000000000000000000000000600052602160045260246000fd5b81526020016000820160019054906101000a900473ffffffffffffffffffffffffffffffffffffffff1673ffffffffffffffffffffffffffffffffffffffff1673ffffffffffffffffffffffffffffffffffffffff1681526020016001820160009054906101000a900473ffffffffffffffffffffffffffffffffffffffff1673ffffffffffffffffffffffffffffffffffffffff1673ffffffffffffffffffffffffffffffffffffffff1681526020016002820154815260200160038201548152602001600482015481526020016005820160009054906101000a900460ff1660038111156114d9577f4e487b7100000000000000000000000000000000000000000000000000000000600052602160045260246000fd5b6003811115611511577f4e487b7100000000000000000000000000000000000000000000000000000000600052602160045260246000fd5b815250509050919050565b670de0b6b3a764000081565b600061153382610966565b9050919050565b6040518060e001604052806000600281111561157f577f4e487b7100000000000000000000000000000000000000000000000000000000600052602160045260246000fd5b8152602001600073ffffffffffffffffffffffffffffffffffffffff168152602001600073ffffffffffffffffffffffffffffffffffffffff1681526020016000815260200160008152602001600081526020016000600381111561160d577f4e487b7100000000000000000000000000000000000000000000000000000000600052602160045260246000fd5b81525090565b600061162661162184611e5f565b611e3a565b90508281526020810184848401111561163e57600080fd5b61164984828561202b565b509392505050565b600081359050611660816122db565b92915050565b600081359050611675816122f2565b92915050565b60008151905061168a81612309565b92915050565b60008135905061169f81612320565b92915050565b6000813590506116b481612337565b92915050565b6000813590506116c98161234e565b92915050565b600082601f8301126116e057600080fd5b81356116f0848260208601611613565b91505092915050565b6000813590506117088161235e565b92915050565b60006020828403121561172057600080fd5b600061172e84828501611651565b91505092915050565b60006020828403121561174957600080fd5b60006117578482850161167b565b91505092915050565b60006020828403121561177257600080fd5b600061178084828501611690565b91505092915050565b60008060008060008060c087890312156117a257600080fd5b60006117b089828a01611690565b96505060206117c189828a01611666565b95505060406117d289828a01611666565b94505060606117e389828a016116f9565b93505060806117f489828a016116f9565b92505060a061180589828a016116ba565b9150509295509295509295565b6000806040838503121561182557600080fd5b6000611833858286016116a5565b925050602061184485828601611690565b9150509250929050565b60008060006060848603121561186357600080fd5b6000611871868287016116a5565b9350506020611882868287016116f9565b925050604061189386828701611690565b9150509250925092565b6000602082840312156118af57600080fd5b60006118bd848285016116ba565b91505092915050565b600080604083850312156118d957600080fd5b60006118e7858286016116ba565b92505060206118f8858286016116f9565b9150509250929050565b6000806000806080858703121561191857600080fd5b600085013567ffffffffffffffff81111561193257600080fd5b61193e878288016116cf565b945050602085013567ffffffffffffffff81111561195b57600080fd5b611967878288016116cf565b935050604085013567ffffffffffffffff81111561198457600080fd5b611990878288016116cf565b925050606085013567ffffffffffffffff8111156119ad57600080fd5b6119b9878288016116cf565b91505092959194509250565b6119ce81611f7d565b82525050565b6119dd81611f6b565b82525050565b6119ec81611f9b565b82525050565b6119fb81612007565b82525050565b611a0a81612019565b82525050565b6000611a1b82611e90565b611a258185611e9b565b9350611a3581856020860161203a565b611a3e8161215a565b840191505092915050565b6000611a56601483611e9b565b9150611a618261216b565b602082019050919050565b6000611a79600d83611e9b565b9150611a8482612194565b602082019050919050565b6000611a9c601883611e9b565b9150611aa7826121bd565b602082019050919050565b6000611abf601883611e9b565b9150611aca826121e6565b602082019050919050565b6000611ae2601583611e9b565b9150611aed8261220f565b602082019050919050565b6000611b05601183611e9b565b9150611b1082612238565b602082019050919050565b6000611b28601283611e9b565b9150611b3382612261565b602082019050919050565b6000611b4b600a83611e9b565b9150611b568261228a565b602082019050919050565b60e082016000820151611b776000850182611a01565b506020820151611b8a60208501826119c5565b506040820151611b9d60408501826119c5565b506060820151611bb06060850182611bef565b506080820151611bc36080850182611bef565b5060a0820151611bd660a0850182611bef565b5060c0820151611be960c08501826119f2565b50505050565b611bf881611ffd565b82525050565b611c0781611ffd565b82525050565b6000602082019050611c2260008301846119d4565b92915050565b6000606082019050611c3d60008301866119d4565b611c4a60208301856119d4565b611c576040830184611bfe565b949350505050565b6000604082019050611c7460008301856119d4565b611c816020830184611bfe565b9392505050565b6000602082019050611c9d60008301846119e3565b92915050565b60006080820190508181036000830152611cbd8187611a10565b90508181036020830152611cd18186611a10565b90508181036040830152611ce58185611a10565b90508181036060830152611cf98184611a10565b905095945050505050565b60006020820190508181036000830152611d1d81611a49565b9050919050565b60006020820190508181036000830152611d3d81611a6c565b9050919050565b60006020820190508181036000830152611d5d81611a8f565b9050919050565b60006020820190508181036000830152611d7d81611ab2565b9050919050565b60006020820190508181036000830152611d9d81611ad5565b9050919050565b60006020820190508181036000830152611dbd81611af8565b9050919050565b60006020820190508181036000830152611ddd81611b1b565b9050919050565b60006020820190508181036000830152611dfd81611b3e565b9050919050565b600060e082019050611e196000830184611b61565b92915050565b6000602082019050611e346000830184611bfe565b92915050565b6000611e44611e55565b9050611e50828261206d565b919050565b6000604051905090565b600067ffffffffffffffff821115611e7a57611e7961212b565b5b611e838261215a565b9050602081019050919050565b600081519050919050565b600082825260208201905092915050565b6000611eb782611ffd565b9150611ec283611ffd565b925082611ed257611ed16120cd565b5b828204905092915050565b6000611ee882611ffd565b9150611ef383611ffd565b9250817fffffffffffffffffffffffffffffffffffffffffffffffffffffffffffffffff0483118215151615611f2c57611f2b61209e565b5b828202905092915050565b6000611f4282611ffd565b9150611f4d83611ffd565b925082821015611f6057611f5f61209e565b5b828203905092915050565b6000611f7682611fdd565b9050919050565b6000611f8882611fdd565b9050919050565b60008115159050919050565b6000819050919050565b6000611fb082611f6b565b9050919050565b6000819050611fc5826122b3565b919050565b6000819050611fd8826122c7565b919050565b600073ffffffffffffffffffffffffffffffffffffffff82169050919050565b6000819050919050565b600061201282611fb7565b9050919050565b600061202482611fca565b9050919050565b82818337600083830152505050565b60005b8381101561205857808201518184015260208101905061203d565b83811115612067576000848401525b50505050565b6120768261215a565b810181811067ffffffffffffffff821117156120955761209461212b565b5b80604052505050565b7f4e487b7100000000000000000000000000000000000000000000000000000000600052601160045260246000fd5b7f4e487b7100000000000000000000000000000000000000000000000000000000600052601260045260246000fd5b7f4e487b7100000000000000000000000000000000000000000000000000000000600052602160045260246000fd5b7f4e487b7100000000000000000000000000000000000000000000000000000000600052604160045260246000fd5b6000601f19601f8301169050919050565b7f424f554e54595f4e4f545f4445504f5349544544000000000000000000000000600082015250565b7f4f4e4c595f545245415355525900000000000000000000000000000000000000600082015250565b7f5a45524f5f414444524553535f4e4f545f414c4c4f5745440000000000000000600082015250565b7f424f554e54595f414c52454144595f50415945445f464f520000000000000000600082015250565b7f46554e44535f5354494c4c5f494e5f455343524f570000000000000000000000600082015250565b7f4f4e4c595f424f554e54595f5041594552000000000000000000000000000000600082015250565b7f57524f4e475f424f554e54595f56414c55450000000000000000000000000000600082015250565b7f4f4e4c595f4f574e455200000000000000000000000000000000000000000000600082015250565b600481106122c4576122c36120fc565b5b50565b600381106122d8576122d76120fc565b5b50565b6122e481611f6b565b81146122ef57600080fd5b50565b6122fb81611f7d565b811461230657600080fd5b50565b61231281611f8f565b811461231d57600080fd5b50565b61232981611f9b565b811461233457600080fd5b50565b61234081611fa5565b811461234b57600080fd5b50565b6004811061235b57600080fd5b50565b61236781611ffd565b811461237257600080fd5b5056fea26469706673582212208e71d2bae9266baf95903e519d62e2982446591268cd8f68d5405c052b8814ca64736f6c63430008030033",
  "immutableReferences": {},
  "source": "// SPDX-License-Identifier: MIT\npragma solidity ^0.8.0;\n\nimport \"@openzeppelin/contracts/token/ERC20/IERC20.sol\";\n\ncontract Escrow {\n  enum State {\n    AWAITING_PAYMENT,\n    AWAITING_DELIVERY,\n    COMPLETE\n  }\n\n  struct Bounty {\n    State state;\n    address payable contributor;\n    address payable payer;\n    uint256 value;\n    uint256 expirationDays;\n    uint256 depositTimestamp;\n    Levels contributorLevel;\n  }\n\n  enum Levels {\n    GUEST_PASS,\n    LEVEL_0,\n    LEVEL_1,\n    LEVEL_2\n  }\n\n  uint256 public constant ONE = 10**18;\n\n  mapping(Levels => uint256) private _firstPaymentPercentage;\n  mapping(bytes32 => Bounty) private _bounties; // bouty hash => State\n\n  address private _owner;\n  address private _treasury;\n\n  modifier onlyPayer(bytes32 bountyHash) {\n    require(msg.sender == _bounties[bountyHash].payer, \"ONLY_BOUNTY_PAYER\");\n    _;\n  }\n\n  modifier onlyOwner() {\n    require(msg.sender == _owner, \"ONLY_OWNER\");\n    _;\n  }\n\n  modifier onlyTreasury() {\n    require(msg.sender == _treasury, \"ONLY_TREASURY\");\n    _;\n  }\n\n  constructor(address treasury_) {\n    _treasury = treasury_;\n    _owner = msg.sender;\n  }\n\n  function firstPaymentPercentage(Levels level) public view returns (uint256) {\n    return _firstPaymentPercentage[level];\n  }\n\n  function bounties(bytes32 bountyHash)\n    public\n    view\n    returns (Bounty memory bouty)\n  {\n    return _bounties[bountyHash];\n  }\n\n  function balance() public view returns (uint256) {\n    return address(this).balance;\n  }\n\n  function owner() public view returns (address) {\n    return _owner;\n  }\n\n  function treasury() public view returns (address) {\n    return _treasury;\n  }\n\n  function changeOwner(address newOwner) public onlyOwner {\n    _owner = newOwner;\n  }\n\n  function changeTreasury(address newTreasury) public onlyTreasury {\n    _treasury = newTreasury;\n  }\n\n  // fallback() external payable {}\n\n  function changeFirstPaymentPercentage(Levels level, uint256 newPercentage)\n    public\n    onlyOwner\n  {\n    _firstPaymentPercentage[level] = newPercentage;\n  }\n\n  modifier notZeroAddress(address addr) {\n    require(addr != address(0), \"ZERO_ADDRESS_NOT_ALLOWED\");\n    _;\n  }\n\n  event Approval(\n    address indexed tokenOwner,\n    address indexed spender,\n    uint256 tokens\n  );\n\n  event Transfer(address indexed from, address indexed to, uint256 tokens);\n\n  function hashBountyInfo(\n    string memory title,\n    string memory description,\n    string memory doneCriteria,\n    string memory reward\n  ) public pure returns (bytes32) {\n    return keccak256(abi.encode(title, description, doneCriteria, reward));\n  }\n\n  function defineNewBounty(\n    bytes32 bountyHash,\n    address payable contributor_,\n    address payable payer_,\n    uint256 value_,\n    uint256 expirationDays_,\n    Levels contributorLevel_\n  ) public notZeroAddress(contributor_) notZeroAddress(payer_) {\n    _bounties[bountyHash].contributor = contributor_;\n    _bounties[bountyHash].payer = payer_;\n    _bounties[bountyHash].value = value_;\n    _bounties[bountyHash].expirationDays = expirationDays_;\n    _bounties[bountyHash].contributorLevel = contributorLevel_;\n  }\n\n  function getContributorPercentage(Levels contributorLevel)\n    public\n    view\n    returns (uint256)\n  {\n    return firstPaymentPercentage(contributorLevel);\n  }\n\n  function deposit(IERC20 token, uint256 amount, bytes32 bountyHash) external payable onlyPayer(bountyHash) {\n    require(amount == _bounties[bountyHash].value, \"WRONG_BOUNTY_VALUE\");\n\n    require(token.transferFrom(msg.sender, address(this), amount));\n\n    require(\n      _bounties[bountyHash].state == State.AWAITING_PAYMENT,\n      \"BOUNTY_ALREADY_PAYED_FOR\"\n    );\n\n    _bounties[bountyHash].depositTimestamp = block.timestamp;\n\n    _bounties[bountyHash].state = State.AWAITING_DELIVERY;\n\n    uint256 contributorPercentage = getContributorPercentage(\n      _bounties[bountyHash].contributorLevel\n    );\n\n    uint256 contributorReceivalbe = (_bounties[bountyHash].value *\n      contributorPercentage) / ONE;\n\n    // value is subtracted here in case contributor initial percentage changes afterwards\n    _bounties[bountyHash].value =\n      (_bounties[bountyHash].value * (ONE - contributorPercentage)) /\n      ONE;\n\n    _bounties[bountyHash].contributor.transfer(contributorReceivalbe);\n  }\n  \n  uint256 constant daysInSeconds = 24 * 60 * 60;\n  function withdraw(IERC20 token, bytes32 bountyHash) public {\n    require(block.timestamp - _bounties[bountyHash].depositTimestamp > _bounties[bountyHash].expirationDays * daysInSeconds, \"FUNDS_STILL_IN_ESCROW\");\n    \n    uint256 amount = _bounties[bountyHash].value;\n    _bounties[bountyHash].value = 0;\n    require(token.transfer(msg.sender, amount));\n  }\n\n  function confirmDelivery(bytes32 bountyHash) external onlyPayer(bountyHash) {\n    require(\n      _bounties[bountyHash].state == State.AWAITING_DELIVERY,\n      \"BOUNTY_NOT_DEPOSITED\"\n    );\n    _bounties[bountyHash].state = State.COMPLETE;\n\n    _bounties[bountyHash].contributor.transfer(_bounties[bountyHash].value);\n  }\n\n  function emergencyWithdrawal(bytes32 bountyHash) public onlyTreasury {\n    _bounties[bountyHash].payer.transfer(_bounties[bountyHash].value);\n  }\n}\n",
  "sourcePath": "/Users/joaohenriquecosta/gitf/bounty-board/packages/truffle/contracts/Escrow.sol",
  "compiler": {
    "name": "solc",
    "version": "0.8.3+commit.8d00100c.Emscripten.clang"
  },
  "schemaVersion": "3.3.4",
  "updatedAt": "2021-07-27T01:22:04.762Z",
  "devdoc": {
    "kind": "dev",
    "methods": {},
    "version": 1
  },
  "userdoc": {
    "kind": "user",
    "methods": {},
    "version": 1
  }
}